:10000000000001204D170000751700007717000051
:10001000791700007B1700007D170000000000002A
:100020000000000000000000000000007F1700003A
:1000300081170000000000008317000085170000F2
:10004000A10F000087170000291600008717000085
:100050008717000087170000871700008717000028
:100060008717000087170000871700008717000018
:100070008717000087170000871700008717000008
:1000800087170000710E0000871700008717000017
:10009000B10E0000871700008717000087170000C7
:1000A00087170000871700008717000087170000D8
:1000B0008717000087170000000000000000000004
:1000C00087170000871700008717000087170000B8
:1000D0008717000087170000871700000000000046
:1000E0000000000000000000000000000000000010
:1000F0000000000000000000000000000000000000
:1001000000000000000000000000000000000000EF
:1001100000000000000000000000000000000000DF
:1001200000000000000000000000000000000000CF
:1001300000000000000000000000000000000000BF
:1001400000000000000000000000000000000000AF
:10015000000000000000000000000000000000009F
:10016000000000000000000000000000000000008F
:10017000000000000000000000000000000000007F
:10018000000000000000000000000000000000006F
:10019000000000000000000000000000000000005F
:1001A000000000000000000000000000000000004F
:1001B000000000000000000000000000000000003F
:1001C000000000000000000000000000000000002F
:1001D000000000000000000000000000000000001F
:1001E000000000000000000000000000000000000F
:1001F00000000000000000000000000000000000FF
:1002000010B5054C237833B9044B13B10448AFF350
:1002100000800123237010BD70000020000000004A
:10022000681D00000C4B43B10C480D4910B5AFF3ED
:1002300000800C48036823B910BD0A48036833B92D
:100240007047094B002BF7D0BDE810401847064B0C
:10025000002BF5D0184700BF00000000681D00000B
:10026000740000206C00002000000000154B002BE3
:1002700008BF134B9D46A3F5803A00218B460F46DD
:100280001348144A121A00F063F80F4B002B00D0E9
:1002900098470E4B002B00D0984700200021040007
:1002A0000D000D48002802D00C48AFF3008000F08C
:1002B0002BF82000290001F031FA00F011F800BFFE
:1002C0000000080000000120000000000000000005
:1002D00070000020E001002000000000000000008D
:1002E00008B5074B044613B10021AFF30080054B5E
:1002F0001868836A03B19847204600F031F800BFC0
:1003000000000000601D000070B50D4E0D4CA41BD8
:10031000A4100025A54209D10B4E0C4C01F014FD90
:10032000A41BA4100025A54205D170BD56F82530A8
:1003300098470135EEE756F8253098470135F2E742
:100340006400002064000020640000206800002099
:1003500002440346934200D1704703F8011BF9E7BA
:10036000FEE700BF80B483B000AF78604FF0A043D9
:1003700018460C37BD465DF8047B704780B584B0E5
:1003800000AF7860084611461A460346FB700B46DC
:10039000BB7013467B703B1D1846FFF7E3FFF86008
:1003A0007A68F978BB785B0019437B789B00194326
:1003B0003B7E1B0219433B7F1B041943FB6802F57C
:1003C000E07243F8221000BF1037BD4680BD80B5F3
:1003D00084B002AF786000230193002300930023D0
:1003E000012201217868FFF7C9FF00BF0837BD4629
:1003F00080BD80B584B000AF78603B1D1846FFF724
:10040000B1FFF8607B68012202FA03F31946F8682D
:1004100000F04FF800BF1037BD4680BD80B584B0F6
:1004200000AF78603B1D1846FFF79CFFF8607B68C3
:10043000012202FA03F31946F86800F049F800BFF8
:100440001037BD4680BD80B584B000AF78603B1DDD
:100450001846FFF787FFF860FB68D3F80435BB60E8
:10046000BB68DA437B68012101FA03F31A40FB6899
:10047000C3F808257B6801229A40BB681A40FB68D4
:10048000C3F80C2500BF1037BD4680BD80B582B0D3
:1004900000AF786039603B68002B03D17868FFF7C4
:1004A000BDFF02E07868FFF7A4FF00BF0837BD4634
:1004B00080BD80B483B000AF786039607B683A68F3
:1004C000C3F8082500BF0C37BD465DF8047B7047B4
:1004D00080B483B000AF786039607B683A68C3F855
:1004E0000C2500BF0C37BD465DF8047B704700004B
:1004F00080B582B000AF7860054A7B6813441B78F2
:1005000001211846FFF7C2FF00BF0837BD4680BD76
:10051000641D000080B582B000AF00237B6005E061
:100520007868FFF7E5FF7B6801337B607B68032B0E
:10053000F6D900BF0837BD4680BD000080B582B047
:1005400000AF7860054A7B6813441B781846FFF7B4
:100550007AFF00BF0837BD4680BD00BF641D0000A4
:1005600080B582B000AF00237B6009E0094A7B6858
:1005700013441B781846FFF72AFF7B6801337B6022
:100580007B68032BF2D9FFF7C5FF00BF0837BD46D4
:1005900080BD00BF641D000080B483B000AF03467F
:1005A000FB71094997F907305B09FA7902F01F02DC
:1005B000012000FA02F241F8232000BF0C37BD46AB
:1005C0005DF8047B704700BF00E100E080B483B0B9
:1005D00000AF0346FB71094997F907305B09FA79C7
:1005E00002F01F02012000FA02F2203341F823201A
:1005F00000BF0C37BD465DF8047B704700E100E0AA
:1006000080B483B000AF0346FB71094997F9073006
:100610005B09FA7902F01F02012000FA02F240336E
:1006200041F8232000BF0C37BD465DF8047B7047BE
:1006300000E100E080B483B000AF0346FB710949DC
:1006400097F907305B09FA7902F01F02012000FADE
:1006500002F2603341F8232000BF0C37BD465DF83D
:10066000047B704700E100E080B485B000AF7860A3
:10067000254BFB607B68002B40D0244B1A68F9683F
:100680007B6800BF00BF00BF00BF00BF00BF00BF4E
:1006900000BF8A422FD000BF00BF00BF00BF00BF15
:1006A00000BF00BF00BF00BF00BF00BF00BF00BF52
:1006B00000BF00BF00BF00BF00BF00BF00BF00BF42
:1006C00000BF00BF00BF00BF00BF00BF00BF00BF32
:1006D00000BF00BF00BF00BF00BF00BF00BF00BF22
:1006E00000BF00BF00BF00BF00BF00BF00BF00BF12
:1006F00000BF00BF00BF013BC3D17B6000BF143708
:10070000BD465DF8047B70470024F40060000020C3
:1007100080B500AF0D4B4FF48032C3F844230B4B30
:100720004FF48032C3F804231120FFF783FF112018
:10073000FFF732FF054B01221A602F20FFF794FFCD
:10074000034B01221A7000BF80BD00BF00100140A2
:10075000AA01002080B500AF1120FFF737FF0F4B33
:100760004FF48032C3F848230C4B4FF48032C3F867
:1007700008230A4B01225A602F20FFF775FF074B11
:1007800001229A60064B00221A602F20FFF76CFFAF
:10079000044B00221A7000BF80BD00BF0010014052
:1007A0009C010020AA01002080B400AF034BD3F8C5
:1007B00004351846BD465DF8047B704700100140C3
:1007C00080B483B000AF786039607A683B68D31A30
:1007D00023F07F4318460C37BD465DF8047B704715
:1007E00080B483B000AF7860044A7B68C2F84035BB
:1007F00000BF0C37BD465DF8047B70470010014018
:1008000080B487B000AF7860294B1B68002B03D100
:10081000274A7B68136045E07B681A68244B1B6895
:100820001B689A4210D8224B1B68214A1268116833
:100830007A6812688A1A1A601D4B1A687B68DA6136
:100840001B4A7B6813602DE07B681B68FB60184BBC
:100850001B687B61164B1B683B6109E03B691B68A9
:10086000FA68D31AFB603B697B613B69DB693B61DA
:100870003B69002B04D03B691A68FB689A42EDD3B0
:100880003B69002B05D03B691A68FB68D21A3B69AB
:100890001A607B68FA681A607B683A69DA617B697A
:1008A0007A68DA6100BF1C37BD465DF8047B70478B
:1008B0009801002080B586B000AF7860294B1B6896
:1008C000FB60284B1B687B617B693B6108E03A69F0
:1008D0007B689A4208D03B697B613B69DB693B617D
:1008E0003B69002BF3D100E000BF3B69002B01D135
:1008F000002333E07A693B699A4214D1194B1B6893
:10090000DB69184A1360174B1B68002B0BD1164B81
:1009100001229A60154B00221A60154B01221A70B1
:100920002F20FFF7A1FE3B691B68BB603B69DA69BA
:100930007B69DA617B69DB693B613B69002B05D030
:100940003B691A68BB681A443B691A60054B1B680F
:10095000FA689A4214BF01230023DBB21846183705
:10096000BD4680BD98010020001001409C01002080
:10097000AB01002080B500AF1120FFF741FE00BFA2
:1009800080BD80B500AF1420FFF73AFE00BF80BDE8
:1009900080B582B000AF78607B685B697A689269E5
:1009A0001046984700BF0837BD4680BD80B584B06B
:1009B00000AF2B4B1B68002B4ED000237B60FFF752
:1009C000F3FE0246274B1B6819461046FFF7F8FE58
:1009D000B860234B1B68FB601DE0FB681A68BB68AE
:1009E0009A421CD8FB681B68BA68D31ABB60FB68C4
:1009F0001B687A6813447B60FB683B60FB68DB69BB
:100A0000FB603B681B7C002B05D03B6800221A74FE
:100A10003868FFF7BDFFFB68002BDED100E000BFA8
:100A2000114B1A78114B1B789A420CD10F4B1B7843
:100A30000133DAB20D4B1A700C4B1B78022B02D12A
:100A40000A4B00221A70094B1B781946084A7B682A
:100A500042F82130FFF795FF00BF1037BD4680BD3B
:100A6000980100209C010020A8010020A90100207D
:100A7000A001002080B483B000AF7860194B1A78D1
:100A8000194B1B789A4223D0164B1B780133DAB2EC
:100A9000144B1A70134B1B78022B02D1114B0022FE
:100AA0001A70104B1B781A46104B53F822207B68A3
:100AB0001A607B681A680E4B1B6813440C4A13605B
:100AC0000B4B1B6823F07F43094A1360012303E0AB
:100AD0007B6800221A60002318460C37BD465DF87B
:100AE000047B7047A8010020A9010020A00100207C
:100AF0009C01002080B489B000AFF860B9607A60D2
:100B00000023FB6138E0214B1B68BB61BB691A689D
:100B1000FB689A4206D9BB691A68FB68D21ABB699E
:100B20001A602DE0BB691B68FA68D31AFB60BB69C9
:100B30001B68FA691344FB61BB6900221A60134BFE
:100B40001B687B61BB69DB69104A1360BB69DB68AA
:100B5000002B11D0BA68FB69134423F07F42BB69B4
:100B60005A60BB69DA68BB699A607B681A68BB69BE
:100B7000DA617B687A691A60044B1B68002BC2D16A
:100B800000BF2437BD465DF8047B70479801002004
:100B900080B588B000AF78600023FB77654B1B6899
:100BA0007B61A9E07B68002B05D07B68BB61BB69DA
:100BB000DB697B6060E0604B1B781A4613465B0084
:100BC0001344DB005C4A134404333B615A4B1B78EB
:100BD0000133DAB2584B1A70574B1A78564B9B7840
:100BE0009A4202D1544B00221A703B695B68BB6188
:100BF0003B691B78022B04D0032B1AD0012B1ED08B
:100C00001CE03B695B681846FFF754FE0346002B67
:100C100001D00123FB77BB6900221A746CE0454BBD
:100C20001B68FB60FB6800221A74FB68DB69414AA1
:100C30001360404B1B68002BF1D15DE05CE000BF0E
:100C4000BB691B7C002B00D056E03B699A68BB69EE
:100C50005A603B69DA68BB699A603B691A69BB698B
:100C6000DA603B695A69BB699A61344B1B78002B87
:100C700002D0BB6900225A60BB695A68304B1B68BE
:100C8000D31A23F07F432F4A93420ED8BB695A6888
:100C90002B4B1B6819461046FFF792FD0246BB69B5
:100CA0009B681A44BB691A6017E0254B1A68BB6938
:100CB0005B6819461046FFF783FDB860BB699A6808
:100CC000BB689A4206D9BB699A68BB68D21ABB69ED
:100CD0001A6002E0BB6900221A60BB6900225A60F8
:100CE000BB6900229A60BB6901221A74BB690022A9
:100CF000DA61B869FFF784FD7B68002B7FF452AF9F
:100D00000D4B1A780C4B5B789A427FF44BAFFB7F0C
:100D1000002B04D1074B1A687B699A4201D001234A
:100D200000E0002303F00103DBB218462037BD4684
:100D300080BD00BF980100208C000020AB01002086
:100D40009C010020FEFF7F0090B589B000AF786065
:100D5000274B1B68002B44D0254B1B681B68FB618D
:100D6000FFF722FDB861234B1B687B617969B86985
:100D7000FFF726FD034603333B611F4B1B7883F0CF
:100D80000103DBB2002B01D0FFF7C2FC3A69FB691B
:100D9000934238BF13467A6913447B617B6923F021
:100DA0007F437B617869FFF71BFDFFF7FDFCF8606F
:100DB000B969F868FFF704FD0346DC1CB969786976
:100DC000FFF7FEFC03469C420DD9FFF7EDFC0346FE
:100DD0001846FFF705FD2F20FFF746FCFFF7CAFD79
:100DE00001E0FFF7B7FC00BF2437BD4690BD00BF50
:100DF000980100209C010020AA01002080B586B047
:100E000000AF00237B600023FB75164B1B683B6122
:100E1000154B1B68FB603B461846FFF72BFE03464D
:100E2000FB72FB7A002B07D03B683A1D39691846E4
:100E3000FFF760FE0123FB757B681846FFF7A8FEED
:100E40000346002B01D00123FB75FB7D002B02D054
:100E5000F868FFF779FF054B00221A7000BF1837BA
:100E6000BD4680BD9C01002098010020AB01002000
:100E700080B500AF0D4B0022C3F840210B4B002280
:100E8000C3F84421094B0022C3F84821074B002234
:100E9000C3F84C21054B0022C3F80021034B00226C
:100EA000C3F80421FFF782FD00BF80BD00100140A0
:100EB00080B500AFFFF7A2FF00BF80BD80B483B054
:100EC00000AF78604FF080427B68C2F8083300BF03
:100ED0000C37BD465DF8047B704780B485B000AF29
:100EE0000346FB80FB8803F1804300221A60FB88E5
:100EF00003F180431B68FB60FB6800BF1437BD46ED
:100F00005DF8047B704780B483B000AF0346FB807C
:100F1000FB8803F180431B68002B14BF01230023CF
:100F2000DBB218460C37BD465DF8047B704780B4D1
:100F300085B000AF78607B681B68FB60FB68002BA6
:100F400003D0FB681A687B681A60FB681846143780
:100F5000BD465DF8047B704780B584B000AF0346A2
:100F6000FB71FB79002B02D10B4BFB6001E00B4BBB
:100F7000FB60F868FFF7DBFFB860BB68002B05D0AB
:100F8000BB685B68FA7910469847F2E700BF00BF7C
:100F90001037BD4680BD00BFB4010020BC01002059
:100FA00080B500AF4FF48070FFF7ADFF0346002B14
:100FB0000CD04FF48070FFF790FF0120FFF77EFF09
:100FC0000D4B01225A700020FFF7C6FF4FF48270CC
:100FD000FFF799FF0346002B0CD04FF48270FFF708
:100FE0007CFF0220FFF76AFF034B01229A70012069
:100FF000FFF7B2FF00BF80BDAC01002080B485B018
:1010000000AF78600B467B807B887A6813440022AF
:101010001A607B887A6813441B68FB60FB6800BF1A
:101020001437BD465DF8047B704780B483B000AFD1
:1010300078600B467B807B887A6813441B68002BA2
:1010400014BF01230023DBB218460C37BD465DF800
:10105000047B704780B483B000AF786039607B68F0
:10106000D3F804233B681340002B14BF0123002353
:10107000DBB218460C37BD465DF8047B704780B480
:1010800083B000AF786039607B683A68C3F80823A2
:1010900000BF0C37BD465DF8047B704780B485B057
:1010A00000AF78607B68D3F88034FB607B68FA68B7
:1010B000C3F88024FB6818461437BD465DF8047BEE
:1010C000704780B483B000AF78607B68D3F8183580
:1010D000DBB218460C37BD465DF8047B704780B420
:1010E00083B000AF78600B46FB70FA787B68C3F87A
:1010F0001C2500BF0C37BD465DF8047B704780B4EB
:1011000083B000AF78600B46FB70FB787A681344BD
:1011100001221A6000BF0C37BD465DF8047B7047A2
:1011200080B485B000AF78600B467B807B887A689E
:10113000134400221A607B887A6813441B68FB60A2
:10114000FB6800BF1437BD465DF8047B704780B470
:1011500083B000AF78600B467B807B887A6813444D
:101160001B68002B14BF01230023DBB218460C3789
:10117000BD465DF8047B704780B483B000AF7860F3
:1011800039607B68D3F800223B68DB431A407B68F8
:10119000C3F8002200BF0C37BD465DF8047B7047E2
:1011A00080B485B000AF78607B68D3F88034FB6092
:1011B0007B68FA68C3F88024FB6818461437BD467C
:1011C0005DF8047B704780B483B000AF78607B68C3
:1011D000D3F84C3518460C37BD465DF8047B704794
:1011E00080B483B000AF78607B68D3F83C35184694
:1011F0000C37BD465DF8047B704780B584B000AF06
:10120000786039604FF48E717868FFF7F7FE3B68BD
:101210009B683A68928A92B213441B78FB733B68CE
:101220009B8A9BB201339AB23B689A82FB7B194638
:101230007868FFF754FF00BF1037BD4680BD90B5FA
:1012400083B000AF786039603B68DB7D002B08D14C
:101250004FF484717868FFF7D1FE7868FFF731FFAB
:1012600016E04FF484717868FFF7C8FE3B68DB68CE
:101270003A68527ED2B29C187868FFF722FF034684
:1012800023703B685B7EDBB20133DAB23B685A768F
:101290000C37BD4690BD80B588B000AFF8600B46F6
:1012A0007A60FB7201233B74FB7A3B767B687B613F
:1012B000FB685B68FA68116807F1100210469847EE
:1012C00000BF2037BD4680BD80B586B000AF7860D6
:1012D0000B46FB7000233B72FB783B747B689B687A
:1012E000FB607B6800229A757B685B687A6811688E
:1012F00007F108021046984700BF1837BD4680BD69
:1013000080B588B000AF786039604FF400717868BC
:10131000FFF7A0FE0346002B38D04FF49271786897
:10132000FFF783FE0346002B30D04FF492717868AC
:10133000FFF764FE4FF401717868FFF7A0FE3B6889
:101340009B7E83F00103DBB2002B03D0042178687D
:10135000FFF7D5FE02233B727868FFF79FFE034636
:101360007B613B68DB7D3B743B68DB68FB603B6813
:101370000022DA753B6800221A763B685B683A689F
:10138000116807F108021046984754E00421786874
:10139000FFF760FE0346002B4DD04FF48471786850
:1013A000FFF743FE0346002B45D039687868FFF706
:1013B00046FF3B68DA7D3B685B7EDBB29A423AD1FE
:1013C0003B681B7E002B1AD03B68DB68FB613B68E7
:1013D0005B7EFB763B681A7E3B68DA753B681A6970
:1013E0003B68DA603B6800221A763B6800225A7636
:1013F000FB7EFA6919463868FFF74DFF1BE03B6832
:101400009B7E83F00103DBB2002B03D004217868BC
:10141000FFF775FE4FF401717868FFF730FE3B6807
:101420000022DA753B685B7ED9B23B68DB681A46FE
:101430003868FFF730FF4FF48E717868FFF7F5FDDD
:101440000346002B1BD03B689B8A9AB23B689B7D6E
:101450009BB29A4204D239687868FFF7CEFE0EE05C
:101460004FF48E717868FFF7C9FD3B689B7D002BB8
:1014700005D03B689B7D19463868FFF725FF4FF480
:10148000A2717868FFF7D1FD0346002B1CD04FF402
:10149000A2717868FFF7B2FD3B689B7E002B03D0FA
:1014A00000217868FFF72BFE3B68DB7D002B0BD01B
:1014B0003B680022DA753B685B7ED9B23B68DB682B
:1014C0001A463868FFF7E7FE00BF2037BD4680BDEB
:1014D00080B588B000AF786039604FF49271786859
:1014E000FFF735FE0346002B23D04FF49271786846
:1014F000FFF716FE02233B727868FFF751FE0346A2
:101500007B617868FFF76CFE0346DBB23B743B6897
:10151000DB68FB603B680022DA753B6800221A76C4
:101520003B685B683A68116807F108021046984703
:101530003DE04FF488717868FFF709FE0346002B01
:1015400035D04FF488717868FFF7EAFD7868FFF7C7
:1015500047FE0346FB773B68DB7DFA7F9A4226D144
:101560003B681B7E002B18D03B68DB68BB612021E9
:101570007868FFF701FE3B681A7E3B68DA753B68C6
:101580001A693B68DA603B6800221A76FB7FBA6909
:1015900019463868FFF77FFE09E03B680022DA75DC
:1015A0003B68DA68FB7F19463868FFF774FE4FF432
:1015B000A2717868FFF7CBFD0346002B16D04FF4DD
:1015C000A2717868FFF7ACFD3B68DB7D002B0DD086
:1015D0003B680022DA757868FFF702FE0346D9B24D
:1015E0003B68DB681A463868FFF755FE4FF4907188
:1015F0007868FFF7ACFD0346002B11D04FF49071D3
:101600007868FFF78DFD3B689B7D002B08D07868DC
:10161000FFF7D9FD0346DBB219463868FFF754FEE1
:1016200000BF2037BD4680BD80B500AF074B1B7F94
:10163000002B04D005490648FFF74AFF03E00349A1
:101640000348FFF75DFE00BF80BD00BFC001002062
:101650000020004080B485B000AF7860254BFB606F
:101660007B68002B40D0244B1A68F9687B6800BF68
:1016700000BF00BF00BF00BF00BF00BF00BF8A4265
:101680002FD000BF00BF00BF00BF00BF00BF00BF22
:1016900000BF00BF00BF00BF00BF00BF00BF00BF52
:1016A00000BF00BF00BF00BF00BF00BF00BF00BF42
:1016B00000BF00BF00BF00BF00BF00BF00BF00BF32
:1016C00000BF00BF00BF00BF00BF00BF00BF00BF22
:1016D00000BF00BF00BF00BF00BF00BF00BF00BF12
:1016E00000BF013BC3D17B6000BF1437BD465DF82E
:1016F000047B70470024F4006000002080B582B0B5
:1017000000AF78607B684FF47A7202FB03F31846EF
:10171000FFF7A0FF00BF0837BD4680BD80B582B08F
:1017200000AFFEF71DFF00237B600AE07B681846D0
:10173000FEF704FF4FF4FA70FFF7E0FF7B68013318
:101740007B607B68032BF1DDEDE700000649074A6B
:10175000074B9B1A03DD043BC858D050FBDC00F05C
:1017600035F8FEF783FD0000741D00000000002026
:1017700070000020FEE7FEE7FEE7FEE7FEE7FEE77B
:10178000FEE7FEE7FEE7FEE780B400AFBFF34F8F52
:101790000549054BDB6803F4E062044B1343CB605F
:1017A000BFF34F8F00BFFDE700ED00E00400FA0536
:1017B00080B400AF034B044A1A6000BFBD465DF819
:1017C000047B7047600000200090D00380B500AF1C
:1017D00000F048F90346002B06D0914A914B1B6854
:1017E0001B0A03F01F03136000F06EF90346002B81
:1017F00002D08D4B8D4A1A6000F088F90346002B09
:1018000006D08B4A8B4B1B685B0B03F007031360FE
:1018100000F0AEF90346002B05D0874A864BDB6803
:1018200023F08073D36000F0C5F90346002B0ED07F
:101830004FF080430022C3F80C214FF08043002278
:10184000C3F810214FF080430022C3F8382500F080
:10185000E3F90346002B02D0784B03221A6000F014
:10186000FDF90346002B0BD0754B05221A60754B12
:1018700001221A60744B00221A60744B3F221A60D6
:1018800000F00EFA0346002B76D0714A4FF08053D9
:10189000D3F80434C2F820356D4A4FF08053D3F8A2
:1018A0000834C2F824356A4A4FF08053D3F80C3418
:1018B000C2F82835664A4FF08053D3F81034C2F886
:1018C0002C35634A4FF08053D3F81434C2F83035C6
:1018D0005F4A4FF08053D3F81834C2F834355C4A6D
:1018E0004FF08053D3F81C34C2F84035584A4FF0BB
:1018F0008053D3F82034C2F84435554A4FF0805312
:10190000D3F82434C2F84835514A4FF08053D3F805
:101910002834C2F84C354E4A4FF08053D3F82C345B
:10192000C2F850354A4A4FF08053D3F83034C2F8E9
:101930005435474A4FF08053D3F83434C2F86035F9
:10194000434A4FF08053D3F83834C2F86435404AE4
:101950004FF08053D3F83C34C2F868353C4A4FF01E
:101960008053D3F84034C2F86C35394A4FF0805375
:10197000D3F84434C2F8703500F0B4F90346002BB4
:1019800005D0344A344B1B6803F04F031360334ACD
:10199000324BD3F8883043F47003C2F88830BFF379
:1019A0004F8FBFF36F8F4FF01023D3F80032002B0F
:1019B00005DB4FF01023D3F80432002B2BDA284B31
:1019C0000122C3F8042500BF254BD3F80034002BB7
:1019D000FAD04FF010231522C3F8002200BF204B8D
:1019E000D3F80034002BFAD04FF010231522C3F89F
:1019F000042200BF1A4BD3F80034002BFAD0184B46
:101A00000022C3F8042500BF154BD3F80034002B87
:101A1000FAD0FFF7B9FEFFF7CBFE00BF80BD00BFD5
:101A2000403501402403001074C007400DF0ADBAEA
:101A30003C05004044020010F0ED00E0A00500402D
:101A4000105600408856004018560040145600407A
:101A500000C00040E40E00405802001000ED00E01D
:101A600000E0014080B400AF144B1B68DBB2062BD2
:101A70001DD1134B1B6803F00F03002B17D1114B23
:101A80001B6803F0F003302B01D1012310E00D4B54
:101A90001B6803F0F003402B01D1012308E0094B40
:101AA0001B6803F0F003502B01D1012300E0002359
:101AB0001846BD465DF8047B704700BFE00F00F09C
:101AC000E40F00F0E80F00F080B400AF0C4B1B688F
:101AD000DBB2062B0DD10B4B1B6803F00F03002B61
:101AE00007D1094B1B6803F0F003302B01D1012310
:101AF00000E000231846BD465DF8047B704700BF38
:101B0000E00F00F0E40F00F0E80F00F080B400AF49
:101B1000144B1B68DBB2062B1DD1134B1B6803F063
:101B20000F03002B17D1114B1B6803F0F003302B70
:101B300001D1012310E00D4B1B6803F0F003402B93
:101B400001D1012308E0094B1B6803F0F003502B7F
:101B500001D1012300E000231846BD465DF8047B57
:101B6000704700BFE00F00F0E40F00F0E80F00F056
:101B700080B400AF0C4B1B68DBB2062B0DD10B4BB6
:101B80001B6803F00F03002B07D1094B1B6803F000
:101B9000F003302B01D1012300E000231846BD469D
:101BA0005DF8047B704700BFE00F00F0E40F00F029
:101BB000E80F00F080B400AF144B1B68DBB2062BBB
:101BC0001DD1134B1B6803F00F03002B17D1114BD2
:101BD0001B6803F0F003302B01D1012310E00D4B03
:101BE0001B6803F0F003402B01D1012308E0094BEF
:101BF0001B6803F0F003502B01D1012300E0002308
:101C00001846BD465DF8047B704700BFE00F00F04A
:101C1000E40F00F0E80F00F080B400AF0C4B1B683D
:101C2000DBB2062B0DD10B4B1B6803F00F03002B0F
:101C300007D1094B1B6803F0F003302B01D10123BE
:101C400000E000231846BD465DF8047B704700BFE6
:101C5000E00F00F0E40F00F0E80F00F080B400AFF8
:101C60000C4B1B68DBB2062B0DD10B4B1B6803F032
:101C70000F03002B07D1094B1B6803F0F003302B37
:101C800001D1012300E000231846BD465DF8047B26
:101C9000704700BFE00F00F0E40F00F0E80F00F025
:101CA00080B400AF0C4B1B68DBB2062B0DD10B4B85
:101CB0001B6803F00F03002B07D1094B1B6803F0CF
:101CC000F003502B01D1012300E000231846BD464C
:101CD0005DF8047B704700BFE00F00F0E40F00F0F8
:101CE000E80F00F080B400AF144B1B68DBB2062B8A
:101CF0001DD1134B1B6803F00F03002B17D1114BA1
:101D00001B6803F0F003302B01D1012310E00D4BD1
:101D10001B6803F0F003402B01D1012308E0094BBD
:101D20001B6803F0F003502B01D1012300E00023D6
:101D30001846BD465DF8047B704700BFE00F00F019
:101D4000E40F00F0E80F00F0F8B500BFF8BC08BCE5
:101D50009E467047F8B500BFF8BC08BC9E46704769
:0C1D60000000002011121314000000000D
:081D6C0000E5FF7F010000000B
:101D7400000000000000000000000000000000005F
:101D8400000000000000000000000000000000004F
:101D9400000000000000000000000000000000003F
:101DA400000000000000000000000000000000002F
:101DB400000000000000000000000000000000001F
:101DC400000000000000000000000000000000000F
:101DD4000090D00325020000010200000000000072
:040000030000174D95
:00000001FF
