:100000000000012089100000B1100000B3100000B2
:10001000B5100000B7100000B9100000000000008B
:10002000000000000000000000000000BB10000005
:10003000BD10000000000000BF100000C110000053
:10004000650C0000C3100000E90C0000C3100000A4
:10005000C3100000C3100000C3100000C310000054
:10006000C3100000C3100000C3100000C310000044
:10007000C3100000C3100000C3100000C310000034
:10008000C3100000B5050000C3100000C31000003D
:1000900055060000C3100000C3100000C31000008C
:1000A000C3100000C3100000C3100000C310000004
:1000B000C3100000C310000000000000000000009A
:1000C000C3100000C3100000C3100000C3100000E4
:1000D000C3100000C3100000C310000000000000A7
:1000E0000000000000000000000000000000000010
:1000F0000000000000000000000000000000000000
:1001000000000000000000000000000000000000EF
:1001100000000000000000000000000000000000DF
:1001200000000000000000000000000000000000CF
:1001300000000000000000000000000000000000BF
:1001400000000000000000000000000000000000AF
:10015000000000000000000000000000000000009F
:10016000000000000000000000000000000000008F
:10017000000000000000000000000000000000007F
:10018000000000000000000000000000000000006F
:10019000000000000000000000000000000000005F
:1001A000000000000000000000000000000000004F
:1001B000000000000000000000000000000000003F
:1001C000000000000000000000000000000000002F
:1001D000000000000000000000000000000000001F
:1001E000000000000000000000000000000000000F
:1001F00000000000000000000000000000000000FF
:10020000044B05481B1A062B02D9044B03B11847AF
:10021000704700BF73000020700000200000000045
:1002200005490648091A891001EBD171491002D01D
:10023000034B03B118477047700000207000002086
:100240000000000010B5064C237843B9FFF7D8FF33
:10025000044B13B10448AFF300800123237010BD99
:1002600070000020000000001C14000008B5084BBE
:100270001BB108480849AFF300800848036813B968
:10028000BDE80840CCE7064B002BF9D09847F7E7CC
:10029000000000001C140000740000206C0000200E
:1002A00000000000134B002B08BF114B9D46A3F527
:1002B000803A00218B460F461148124A121A00F06C
:1002C00079F80D4B002B00D098470C4B002B00D039
:1002D00098470020002104000D000B4800F016F89C
:1002E00000F042F82000290000F07CFE00F014F835
:1002F00000000800000001200000000000000000D5
:10030000700000207402002041030000014600201C
:100310000246034600F056B808B5074B044613B131
:10032000002100F0ABF8054B1868836A03B19847C9
:10033000204600F00DF900BF7D04000014140000F9
:1003400038B5074B074CE41AA4101D4624B1013CF4
:1003500055F824309847F9E7BDE8384001F052B825
:10036000680000206C00002070B50E4B0E4CE41AA3
:10037000A41000251E46A54204D056F82530984703
:100380000135F8E701F038F8084C094BE41AA410DD
:1003900000251E46A54204D056F825309847013561
:1003A000F8E770BD640000206400002068000020B1
:1003B0006400002002440346934202D003F8011B6C
:1003C000FAE770472DE9F843294D2C6806460F4699
:1003D000914698460CB9274C2C6063681F2B14DD9E
:1003E000254B1BB94FF0FF30BDE8F8838C20AFF3ED
:1003F000008004460028F5D000232A68026043608C
:100400002860C0F888303EB928E03EB3D4F88800B0
:1004100078B9194B002BE5D04FF48470AFF300800E
:100420000028DFD00023C0F80031C0F80431C4F840
:100430008800626840F822900123934000EB82011B
:10044000D0F800211A43022EC0F80021C1F88080A4
:1004500002BFD0F804211343C0F8043163685A1C6A
:1004600002336260002044F82370BDE8F88300BFC7
:10047000180100208C000020000000002DE9F74F3B
:1004800080460F46304E3468002C59D06568D4F849
:10049000889005F1FF3AAD0009EB050B04352544C2
:1004A000BAF1000F38DB37B1B9F1000F2ED0DBF80D
:1004B0007C20BA422AD161682A6801398A4516BF70
:1004C0000021C4F804A0296002B363680193B9F164
:1004D000000F06D00121D9F8000101FA0AF101420A
:1004E00001D190470BE0D9F80401014204D1404604
:1004F0005BF8041C904702E05BF8040C90476268CC
:10050000019B9342BED13268A242BBD10AF1FF3AAD
:10051000ABF1040B043DC3E70C4B8BB1626823685D
:100520005AB953B13360B9F1000F02D04846AFF366
:1005300000802046AFF30080A5E726461C46A3E7CF
:1005400003B0BDE8F08F00BF1801002000000000DC
:10055000FEE700BF074B4FF0A041185CD1F804350F
:100560000122824022EA03001340C1F80805C1F8C5
:100570000C3570471814000030B44FF0A04303222C
:100580004FF400354FF480244FF400204FF48011D5
:10059000C3F84427C3F84827C3F84C27C3F85027AB
:1005A000C3F80855C3F80845C3F80805C3F808158B
:1005B00030BC7047F8B5204A204B0025C2F84051A6
:1005C000C2F84451C2F84851C2F84C51C2F8005127
:1005D000C2F804511B6813B31949D2F804250C68FA
:1005E000141B1A6824F07F44A2422F4609D8197CB4
:1005F000DE69A41A154499B91EB133461A68A2429D
:10060000F5D9104B10491A780B789A420DD00F4942
:100610000F4A41F823504FF48013C2F80031F8BD5F
:100620001F745A6998699047E6E7531CDBB2022BA6
:1006300008BF00230B70EAE70010014020010020F2
:100640001C0100202401002025010020340200208C
:1006500000E100E02DE9F04F7D4A7E4913780978EA
:100660007D48994287B0066800F0E8810133DBB22B
:10067000022B08BF002379491370794A029108467A
:1006800052F82310036874488A19002522F07F422B
:100690000260AE462846A3B11A688A4200F2D681AB
:1006A000DC68C3F800E0891A1044DA6934B18719AC
:1006B00027F07F47DD619C605F601D461346002B7D
:1006C000EAD1029A04931360049C01230593654BBD
:1006D000DFF894811B780193029BDFF890C11F68BB
:1006E0005D4BBB46D3F800A02F4600230093C146C4
:1006F0001E464FF0010E37B37A68B9683D46FF6970
:10070000CAEB020323F07F4363453CD80B442B60C4
:100710006E60AE6085F810E0EE61002C67D0216855
:100720008B4242D9204603E01168994244D21046D8
:10073000C2695B1A002AF7D12B60EA612346C561C2
:100740001C46002FD8D198F8003098F801209A4222
:1007500000F08E805A1C03EB430308EBC30399F8A7
:1007600002109D68D2B2914289F800201A7908BF20
:1007700089F80070022A48D0032A3CD0012A22D0EE
:1007800023461C46DDE7C2EB0A0222F07F428A4282
:1007900002D28B1A2B60BBE72E606E60AE6085F8CC
:1007A00010E0EE611CB321680023CB1A23602B46B6
:1007B000EC61AB461C46C4E7C91A11602B60EA61C4
:1007C0002346C561BCE72A7C0392002AD8D1DA68A7
:1007D0006A601969A9605869E86010339B68AB6169
:1007E000019B002B8CD0039B6B601A4688E72B463D
:1007F000AB461C46A5E70CB9C2E71C46E369267464
:10080000002BFAD19B461C469BE754B1A54200F051
:100810000881234602E0954207D01346DA69002A90
:10082000F9D123462E741C468BE7AB4200F0FA80C8
:10083000E9692868D9610029F3D023460A6802448F
:100840000A60009A2E749C4218BF01220092EAE7C7
:1008500024010020250100201C010020200100208F
:10086000340200202601002028010020FEFF7F0026
:10087000029B9DF80420C3F800B0764BC3F800A09B
:10088000754B1A70009B1BB9049BA34200F0D081EA
:10089000002C00F03C81714D6E4BD5F804051B68AF
:1008A0006F4ED4F800C03178C21A22F07F42033272
:1008B000002952D16B4FDFF8B091DFF8B0814FF4CF
:1008C00080314FF4003E0124C5F84413C5F80413E9
:1008D000C7F880E1C7F800E02C602F21D9F800505C
:1008E00000BF00BF00BF00BF00BF00BF00BF00BF10
:1008F00045452FD000BF00BF00BF00BF00BF00BFF5
:1009000000BF00BF00BF00BF00BF00BF00BF00BFEF
:1009100000BF00BF00BF00BF00BF00BF00BF00BFDF
:1009200000BF00BF00BF00BF00BF00BF00BF00BFCF
:1009300000BF00BF00BF00BF00BF00BF00BF00BFBF
:1009400000BF00BF00BF00BF00BF00BF00BF00BFAF
:1009500000BF00BF0139C3D1347062452CBF9A1863
:1009600003EB0C023D4922F07F43C1F84035D1F83A
:100970000425121A1B1A22F07F4223F07F43033210
:100980009A4248D9D1F80435374AC1F8403512683F
:1009900036492F2300BF00BF00BF00BF00BF00BF0C
:1009A00000BF00BF8A422FD000BF00BF00BF00BF02
:1009B00000BF00BF00BF00BF00BF00BF00BF00BF3F
:1009C00000BF00BF00BF00BF00BF00BF00BF00BF2F
:1009D00000BF00BF00BF00BF00BF00BF00BF00BF1F
:1009E00000BF00BF00BF00BF00BF00BF00BF00BF0F
:1009F00000BF00BF00BF00BF00BF00BF00BF00BFFF
:100A000000BF00BF00BF00BF013BC3D1154B4FF477
:100A10000032C3F80021104A0023137007B0BDE86C
:100A2000F08F2246D4F81CB0BBF1000F22D0D16960
:100A300010685B4600297FF401AF02E70C4B02937C
:100A40001B680493002505951C4640E6521A1A605F
:100A500037E600BF1C0100202601002000100140E5
:100A60003C02002000E100E0600000200024F400CF
:100A7000200100207549764BC1F808E075492F2008
:100A8000096800BF00BF00BF00BF00BF00BF00BFBC
:100A900000BF99422FD000BF00BF00BF00BF00BF02
:100AA00000BF00BF00BF00BF00BF00BF00BF00BF4E
:100AB00000BF00BF00BF00BF00BF00BF00BF00BF3E
:100AC00000BF00BF00BF00BF00BF00BF00BF00BF2E
:100AD00000BF00BF00BF00BF00BF00BF00BF00BF1E
:100AE00000BF00BF00BF00BF00BF00BF00BF00BF0E
:100AF00000BF00BF00BF0138C3D1D1691068002911
:100B000000F09B800122DA465B46019296E64F4A4E
:100B1000514B504E4E484FF480314FF40037012571
:100B2000C3F88070C2F848132F23C2F80813556029
:100B300031681E4600BF00BF00BF00BF00BF00BF3E
:100B400000BF00BF81422FD000BF00BF00BF00BF69
:100B500000BF00BF00BF00BF00BF00BF00BF00BF9D
:100B600000BF00BF00BF00BF00BF00BF00BF00BF8D
:100B700000BF00BF00BF00BF00BF00BF00BF00BF7D
:100B800000BF00BF00BF00BF00BF00BF00BF00BF6D
:100B900000BF00BF00BF00BF00BF00BF00BF00BF5D
:100BA00000BF00BF00BF00BF013EC3D195602B4A0C
:100BB000146000BF00BF00BF00BF00BF00BF00BF88
:100BC00000BF81422FD000BF00BF00BF00BF00BFE9
:100BD00000BF00BF00BF00BF00BF00BF00BF00BF1D
:100BE00000BF00BF00BF00BF00BF00BF00BF00BF0D
:100BF00000BF00BF00BF00BF00BF00BF00BF00BFFD
:100C000000BF00BF00BF00BF00BF00BF00BF00BFEC
:100C100000BF00BF00BF00BF00BF00BF00BF00BFDC
:100C200000BF00BF00BF013BC3D10D4B1C70F2E6FB
:100C3000059B002B3FF4EFAE2AE601231A460193F1
:100C40008A468B460B4600922E74ECE5001001405C
:100C50000024F4006000002000E100E01C010020FE
:100C60003C02002010B51D4B1A6882B0F2B91C4B33
:100C70001A680AB902B010BD00221A601B680193FD
:100C80004FF080430222174C0199C3F808232369CF
:100C90000122A270002BEDD01A6822615B6801204E
:100CA00098472369002BF7D102B010BD00221A60CB
:100CB0001B6800934FF0804301220A4C0099C3F84F
:100CC0000823A3686270002BD1D01A68A2605B6809
:100CD00000209847A368002BF7D1C8E70001004027
:100CE0000401004040020020F0B59B4C237F8FB0F0
:100CF000002B75D1994AD2F80413890548D4974B33
:100D0000D3F80423520704D5D3F80821002A40F071
:100D1000CA80924BD3F81C21C2B1A28AA07D8E4911
:100D200092B282424FF00002C3F81C2180F0A980E9
:100D3000D3F81C210692069A888A8A8A8D6880B226
:100D40000132285C92B28A82C3F81C05834BD3F827
:100D50004421DAB10022C3F84421D3F84411A27E21
:100D600004910499002A40F08980E27D7A4B6AB1AF
:100D70000022587ED968DA7501228DF830000B9177
:100D80008DF828200AA893E8060090470FB0F0BD20
:100D9000D2F824110029B2D0C2F82431D2F824119B
:100DA000A37E07914FF401710798C2F808130BB99D
:100DB00001235360694A02238DF82830D2F8803429
:100DC000C2F88034E07DE2680D9300238DF8300096
:100DD000E375237621680B9263680AA8984798E721
:100DE0005E4BD3F82421002A40F09380D3F81011F1
:100DF00061B1C3F81021D3F8101103910399D3F80E
:100E00003C15E07DC9B2884200F0AA80534BD3F86C
:100E10004421B2B10022C3F84421D3F84411E07D4B
:100E2000019101994C4960B1D3F83C35C8688DF8FF
:100E300030300123CA750B908DF828300AA80AC9F2
:100E40009847464BD3F82021002A9FD00022C3F8B0
:100E50002021D3F82011A07D009100993E4900285F
:100E600094D0D3F84C058B688DF830008A750B93BD
:100E70008DF828200AC90AA8984787E701221A6036
:100E800073E7D3F81C310593059B00283FF45EAF50
:100E90008B688DF830008A750B938DF828200AC96D
:100EA0000AA8984752E7E17D2B4A002970D000211B
:100EB000C3F80811D3F8081108910899D068517E39
:100EC000D3F818354354537ED17D0133DBB25376CA
:100ED000627E214B8A427FF41CAF1A7E002A6DD1BC
:100EE0009B7E13B91D4B01225A601C4AE06863685F
:100EF0004FF40171C2F80813627E8DF8302000258E
:100F000001220B902168E5758DF828200AA89847E2
:100F1000FFE60022C3F82421D3F824110291022114
:100F20008DF828100299D3F88014C3F880140D911D
:100F3000D3F83C15E368E27522768DF830100B93F8
:100F4000216863680AA89847044BD3F84421002A13
:100F50003FF477AF5EE700BF54020020002000405E
:100F6000217EF1B1D3F80072E17527F02001E66827
:100F70002569C3F8001201238DF830008DF8283060
:100F8000227621680B96E56063680AA898473DE7DA
:100F9000C3F80811D3F808210992099AD3F8183533
:100FA00096E7E268E17501238DF830008DF828306E
:100FB0000B9294E80A000AA8984727E7DE685D7E4E
:100FC0001869DA7501210022D8601A765A768DF8F0
:100FD00028100B968DF8305093E806000AA8904729
:100FE00097E600BFF8B5FFF7C7FA244F244E254D0A
:100FF00000242046FFF7AEFA3A682B4600BF00BF38
:1010000000BF00BF00BF00BF00BF00BFB2422FD073
:1010100000BF00BF00BF00BF00BF00BF00BF00BFD8
:1010200000BF00BF00BF00BF00BF00BF00BF00BFC8
:1010300000BF00BF00BF00BF00BF00BF00BF00BFB8
:1010400000BF00BF00BF00BF00BF00BF00BF00BFA8
:1010500000BF00BF00BF00BF00BF00BF00BF00BF98
:1010600000BF00BF00BF00BF00BF00BF00BF00BF88
:10107000013BC3D10134042CBBD1B9E7600000208F
:101080000024F40020A107000649074A074B9B1AD9
:1010900003DD043BC858D050FBDC00F013F8FFF729
:1010A00001F900002814000000000020700000205A
:1010B000FEE7FEE7FEE7FEE7FEE7FEE7FEE7FEE708
:1010C000FEE7FEE7F0B4B54B1B78062B1BD0B44A05
:1010D000D2F8883043F47003C2F88830BFF34F8FE2
:1010E000BFF36F8F4FF01023D3F80022002AC0F215
:1010F0002481D3F80432002BC0F21F81A94BAA4AE5
:101100001A60F0BC7047A94B1B681B07DFD1A84BC6
:101110001B6803F0F002302A6BD003F0E003402B91
:1011200067D0A34B1B6803F0F003302B70D0A04BAB
:101130001B6803F0F002302A4BD003F0E003402B91
:1011400047D09B4B1B6803F0F003302B00F0E58089
:10115000974B1B6803F0F002302A27D003F0E0031E
:10116000402B23D0924B1B6803F0F003302B00F090
:10117000C6808F4B1B6803F0F003302B56D08C4B8E
:101180001B6803F0F003502B67D0894B1B6803F0FA
:10119000F002302A03D003F0E003402B97D1854BB7
:1011A000854A1B6803F04F03136090E74FF08043BC
:1011B0000022C3F80C21C3F81021C3F83825774B5F
:1011C0001B78062B83D1794B1B681C077FF47FAFFC
:1011D000C8E77A4B714A1B6812787949C3F34233E6
:1011E000062A0B602ED1714B1B681E077FF46FAF70
:1011F000A7E7744B694A1B6812787349C3F3042349
:10120000062A0B60DBD1694B1B681B0789D05EE7A0
:10121000624B6E4A1B786E491160062B7FF457AF04
:10122000624B1B681F077FF452AF80E7694E6A4C20
:101230006A496B4B0527012500203F223760256056
:1012400008601A60554B1B78062B7FF440AF574B54
:101250001B6819077FF43BAF91E74FF08052614B59
:10126000D2F80414C3F82015D2F80814C3F82415D2
:10127000D2F80C14C3F82815D2F81014C3F82C15A2
:10128000D2F81414C3F83015D2F81814C3F8341572
:10129000D2F81C14C3F84015D2F82014C3F8441532
:1012A000D2F82414C3F84815D2F82814C3F84C1502
:1012B000D2F82C14C3F85015D2F83014C3F85415D2
:1012C000D2F83414C3F86015D2F83814C3F8641592
:1012D000D2F83C14C3F86815D2F84014C3F86C1562
:1012E0002E49D2F84424C3F870250B78062B7FF4DE
:1012F000EEAE2E4B1B681A077FF4E9AE45E7274B8D
:10130000394A1B780321062B11607FF4E0AE274B8E
:101310001B6818077FF4DBAE2BE734491F4BCA6804
:101320001B7822F08072062BCA607FF4D0AE1F4B70
:101330001B681D077FF4CBAE0AE72D4B0122C3F8D3
:101340000425D3F80024002AFBD04FF010231522E7
:101350002749C3F80022D1F80034002BFBD04FF00E
:10136000102315222249C3F80422D1F80024204B6F
:10137000002AFAD00022C3F80425D3F80024002A5A
:10138000FBD0BFF34F8F06491A4BCA6802F4E062E4
:101390001343CB60BFF34F8F00BFFDE7E00F00F0BA
:1013A00000ED00E0600000200090D003E40F00F0AA
:1013B000E80F00F058020010E40E00404402001054
:1013C0003C050040240300104035014074C0074034
:1013D0000DF0ADBA10560040885600401856004037
:1013E0001456004000C00040A0050040F0ED00E0B1
:1013F00000E001400400FA05F8B500BFF8BC08BCE5
:101400009E467047F8B500BFF8BC08BC9E467047C2
:10141000430000000000002011121314000000001F
:0814200084EEFF7F01000000D3
:1014280000000000000000000000000000000000B4
:1014380000000000000000000000000000000000A4
:101448001014000000000000000000000000000070
:101458000000000000000000000000000000000084
:101468000000000000000000000000000000000074
:101478000000000000000000000000000000000064
:101488000090D0036D02000045020000000000003B
:040000030000108960
:00000001FF
